{
  "_format": "hh-sol-artifact-1",
  "contractName": "Wave",
  "sourceName": "contracts/Wave.sol",
  "abi": [
    {
      "inputs": [
        {
          "internalType": "string",
          "name": "_initialMessage",
          "type": "string"
        }
      ],
      "stateMutability": "nonpayable",
      "type": "constructor"
    },
    {
      "inputs": [],
      "name": "message",
      "outputs": [
        {
          "internalType": "string",
          "name": "",
          "type": "string"
        }
      ],
      "stateMutability": "view",
      "type": "function"
    },
    {
      "inputs": [],
      "name": "totalWaves",
      "outputs": [
        {
          "internalType": "uint256",
          "name": "",
          "type": "uint256"
        }
      ],
      "stateMutability": "view",
      "type": "function"
    },
    {
      "inputs": [
        {
          "internalType": "string",
          "name": "_newMessage",
          "type": "string"
        }
      ],
      "name": "waveAtMe",
      "outputs": [],
      "stateMutability": "nonpayable",
      "type": "function"
    }
  ],
  "bytecode": "0x608060405234801561001057600080fd5b50604051610c5d380380610c5d833981810160405281019061003291906101c5565b8060009081610041919061042f565b50600060018190555050610501565b6000604051905090565b600080fd5b600080fd5b600080fd5b600080fd5b6000601f19601f8301169050919050565b7f4e487b7100000000000000000000000000000000000000000000000000000000600052604160045260246000fd5b6100b78261006e565b810181811067ffffffffffffffff821117156100d6576100d561007f565b5b80604052505050565b60006100e9610050565b90506100f582826100ae565b919050565b600067ffffffffffffffff8211156101155761011461007f565b5b61011e8261006e565b9050602081019050919050565b60005b8381101561014957808201518184015260208101905061012e565b60008484015250505050565b6000610168610163846100fa565b6100df565b90508281526020810184848401111561018457610183610069565b5b61018f84828561012b565b509392505050565b600082601f8301126101ac576101ab610064565b5b81516101bc848260208601610155565b91505092915050565b6000602082840312156101db576101da61005a565b5b600082015167ffffffffffffffff8111156101f9576101f861005f565b5b61020584828501610197565b91505092915050565b600081519050919050565b7f4e487b7100000000000000000000000000000000000000000000000000000000600052602260045260246000fd5b6000600282049050600182168061026057607f821691505b60208210810361027357610272610219565b5b50919050565b60008190508160005260206000209050919050565b60006020601f8301049050919050565b600082821b905092915050565b6000600883026102db7fffffffffffffffffffffffffffffffffffffffffffffffffffffffffffffffff8261029e565b6102e5868361029e565b95508019841693508086168417925050509392505050565b6000819050919050565b6000819050919050565b600061032c610327610322846102fd565b610307565b6102fd565b9050919050565b6000819050919050565b61034683610311565b61035a61035282610333565b8484546102ab565b825550505050565b600090565b61036f610362565b61037a81848461033d565b505050565b5b8181101561039e57610393600082610367565b600181019050610380565b5050565b601f8211156103e3576103b481610279565b6103bd8461028e565b810160208510156103cc578190505b6103e06103d88561028e565b83018261037f565b50505b505050565b600082821c905092915050565b6000610406600019846008026103e8565b1980831691505092915050565b600061041f83836103f5565b9150826002028217905092915050565b6104388261020e565b67ffffffffffffffff8111156104515761045061007f565b5b61045b8254610248565b6104668282856103a2565b600060209050601f8311600181146104995760008415610487578287015190505b6104918582610413565b8655506104f9565b601f1984166104a786610279565b60005b828110156104cf578489015182556001820191506020850194506020810190506104aa565b868310156104ec57848901516104e8601f8916826103f5565b8355505b6001600288020188555050505b505050505050565b61074d806105106000396000f3fe608060405234801561001057600080fd5b50600436106100415760003560e01c8063291bcab3146100465780638a47f29e14610064578063e21f37ce14610080575b600080fd5b61004e61009e565b60405161005b9190610177565b60405180910390f35b61007e600480360381019061007991906102ec565b6100a4565b005b6100886100d0565b60405161009591906103b4565b60405180910390f35b60015481565b80600090816100b391906105e2565b5060018060008282546100c691906106e3565b9250508190555050565b600080546100dd90610405565b80601f016020809104026020016040519081016040528092919081815260200182805461010990610405565b80156101565780601f1061012b57610100808354040283529160200191610156565b820191906000526020600020905b81548152906001019060200180831161013957829003601f168201915b505050505081565b6000819050919050565b6101718161015e565b82525050565b600060208201905061018c6000830184610168565b92915050565b6000604051905090565b600080fd5b600080fd5b600080fd5b600080fd5b6000601f19601f8301169050919050565b7f4e487b7100000000000000000000000000000000000000000000000000000000600052604160045260246000fd5b6101f9826101b0565b810181811067ffffffffffffffff82111715610218576102176101c1565b5b80604052505050565b600061022b610192565b905061023782826101f0565b919050565b600067ffffffffffffffff821115610257576102566101c1565b5b610260826101b0565b9050602081019050919050565b82818337600083830152505050565b600061028f61028a8461023c565b610221565b9050828152602081018484840111156102ab576102aa6101ab565b5b6102b684828561026d565b509392505050565b600082601f8301126102d3576102d26101a6565b5b81356102e384826020860161027c565b91505092915050565b6000602082840312156103025761030161019c565b5b600082013567ffffffffffffffff8111156103205761031f6101a1565b5b61032c848285016102be565b91505092915050565b600081519050919050565b600082825260208201905092915050565b60005b8381101561036f578082015181840152602081019050610354565b60008484015250505050565b600061038682610335565b6103908185610340565b93506103a0818560208601610351565b6103a9816101b0565b840191505092915050565b600060208201905081810360008301526103ce818461037b565b905092915050565b7f4e487b7100000000000000000000000000000000000000000000000000000000600052602260045260246000fd5b6000600282049050600182168061041d57607f821691505b6020821081036104305761042f6103d6565b5b50919050565b60008190508160005260206000209050919050565b60006020601f8301049050919050565b600082821b905092915050565b6000600883026104987fffffffffffffffffffffffffffffffffffffffffffffffffffffffffffffffff8261045b565b6104a2868361045b565b95508019841693508086168417925050509392505050565b6000819050919050565b60006104df6104da6104d58461015e565b6104ba565b61015e565b9050919050565b6000819050919050565b6104f9836104c4565b61050d610505826104e6565b848454610468565b825550505050565b600090565b610522610515565b61052d8184846104f0565b505050565b5b818110156105515761054660008261051a565b600181019050610533565b5050565b601f8211156105965761056781610436565b6105708461044b565b8101602085101561057f578190505b61059361058b8561044b565b830182610532565b50505b505050565b600082821c905092915050565b60006105b96000198460080261059b565b1980831691505092915050565b60006105d283836105a8565b9150826002028217905092915050565b6105eb82610335565b67ffffffffffffffff811115610604576106036101c1565b5b61060e8254610405565b610619828285610555565b600060209050601f83116001811461064c576000841561063a578287015190505b61064485826105c6565b8655506106ac565b601f19841661065a86610436565b60005b828110156106825784890151825560018201915060208501945060208101905061065d565b8683101561069f578489015161069b601f8916826105a8565b8355505b6001600288020188555050505b505050505050565b7f4e487b7100000000000000000000000000000000000000000000000000000000600052601160045260246000fd5b60006106ee8261015e565b91506106f98361015e565b9250828201905080821115610711576107106106b4565b5b9291505056fea2646970667358221220e95cb6eb9d7dfc7c4dd59972f8439d0f416abdcd54548719642fe9944590cf5464736f6c634300081c0033",
  "linkReferences": {},
  "deployedLinkReferences": {}
}